:0E0000000C9454000C9400000C9400000C941E
:10000E0000000C9400000C9400000C9400000C9462
:10001E0000000C9400000C9400000C9400000C9452
:10002E0000000C9400000C9400000C9400000C9442
:10003E0000000C9400000C9400000C9481000C94B1
:10004E0000000C9400001027E80364000A00010071
:10005E000010000110000100000000000000000070
:10006E0001003F065B4F666D7D07FFEF010054698F
:10007E006D65203A20253264203A2564000080C048
:10008E000A00040066000A007001700001007A0187
:10009E007A0002007E018C000000F894EE27ECBB83
:1000AE00F1E0FBBFEBBFE5BF8DE0A2E0BB27ED9318
:1000BE008A95E9F780E094E0A0E6ED930197E9F7E1
:1000CE00EEE8F0E085919591009761F0A591B591DC
:1000DE0005901590BF01F00105900D920197E1F783
:1000EE00FB01F0CFEFE5EDBFE4E0EEBFC0E6D1E0FF
:1000FE000C94A4000A921A92FA926A937A938A93B3
:10010E009A93AA93BA93EA93FA93EFB7EA93C39B9F
:10011E0002C00E942B04C39902C00E942B04E991D5
:10012E00EFBFF991E991B991A9919991899179913D
:10013E006991F990199009901895EFEFEABBE0E0FC
:10014E00EBBBEFEFE7BBE0E0E8BBEFE7E4BBE5BB03
:10015E00EFEFE1BBE0E0E2BBE3BFE2BFECBFEFBD20
:10016E00EEBDEDBDECBDE7BDE6BDEBBDEABDE9BD47
:10017E00E8BDE2BDE5BDE4BDE3BDE9BFEBB7E062BE
:10018E00EBBFE0E0E5BFE4BFE0E2EABFE0E0EAB9E2
:10019E00E0E8E8B9E0E0E0BFE6B9EDB9E6BFA0E11E
:1001AE000E943B027894CF9902C0CE9B01C070C0D2
:1001BE00A0E7B1E0A80DB91DEC91E095E5BBA0E775
:1001CE00B1E0AA0DBB1DEC91E2BB9F9B05C0E1E027
:1001DE00F0E0EC15FD0509F005C0F50131965F0163
:1001EE00CC24DD249F9903C0E1E0F0E06F01EAE04A
:1001FE00F0E0EA15FB0529F4AA24BB24F40131969C
:10020E004F01E2E0F0E0E815F90529F4E1E0F0E055
:10021E00EA15FB0509F00EC088249924AA24BB24F4
:10022E00E1E0F0E0E0937A01F0937B01E0937C0152
:10023E00F0937D01879B06C0E0917C01F0917D01DA
:10024E00309709F425C066247724E2E0F0E06E16BC
:10025E007F06F4F444245524EAE0F0E04E165F06DF
:10026E009CF4A0E7B1E0A40DB51DEC91E2BBA0E7B4
:10027E00B1E0A60DB71DEC91E095E5BB0E942F04F1
:10028E00F20131962F01E8CFF30131963F01DDCF18
:10029E00CE9B02C0CF9901C00CC0E8E0E8BBA8EE2F
:1002AE00B3E00E946D04E0E0E8BBA8EEB3E00E946C
:1002BE006D04CE9B02C0CF9B01C010C0E1E2EBBB30
:1002CE000E942B04E2E1EBBB0E942B04ECE0EBBBA3
:1002DE000E942B04E2E1EBBB0E942B04CF9B02C0D9
:1002EE00CE9B01C049C0E0E8E8BB0E942F04E0E0CD
:1002FE00E8BB0E942F04E0E6F1E0FA93EA93ECE704
:10030E00F0E0FA93EA93F3010E947F040E948C04BA
:10031E00F2010E947F040E948C0488E00E94DE039A
:10032E002C96E2E0EA93A0E04FD0A0E6B1E08BD0AD
:10033E00CF9B06C00E942F04F20131962F013197F8
:10034E00EAE0F0E0E415F50529F444245524F30120
:10035E0031963F01ECE3F0E0E615F70539F466243B
:10036E007724E415F50514F466247724CF9904C098
:10037E004424552466247724CE9B02C0CF9902C014
:10038E00E0E0EBBB10CFFFCFAA93E8B3EF70AE2F38
:10039E00E881E07FEA2BE8BB8DE08A95F1F7C29AFF
:1003AE008DE08A95F1F7C2988DE08A95F1F789C0B4
:1003BE00AA93A881E9DFE881E295E883A881E4DFCA
:1003CE0085E88A95F1F77DC0AA93E881F0E0E258BE
:1003DE00FE4FE081A981AE0FEBDFE981E093820150
:1003EE00E881E093830122960895A2E00E943304EF
:1003FE00ACE0DEDFA1E00E943304E0E0E093830195
:10040E00E09382010895AA93A881AA3031F0E09179
:10041E008401A0918201AE1760F0E0E0EA93A09112
:10042E008301AF5FA0938301CFDFA881AA3009F4C7
:10043E0048C0E0918201EF5FE0938201C09AA881EB
:10044E00B7DFC0983EC0BA93AA931A93A981BA8116
:10045E00ED91A983BA831E2FE03019F0A12FD3DFBF
:10046E00F5CF188123960895AA93E7B3E06FE7BB03
:10047E00BA9AB89AB99AC298C098C198E881E0938E
:10048E008401E058E0938001E881E054E09381011B
:10049E00A4E1B0E00E946D040E9439040E94390468
:1004AE000E943904A0E270DF88EC90E00197F1F72A
:1004BE00A8E27EDFA4E07CDFA5E87ADFA6E078DFA5
:1004CE0094DF21960895BA93AA931A930A93AA8158
:1004DE00BB8112960E948404309759F1AA81BB8188
:1004EE0014960E9484048F01309761F00230E0E090
:1004FE001E0798F0F80131978F01AA81BB811496DF
:10050E00ED93FC93AA81BB811296ED91FD913196EC
:10051E00FE93EE933197AC81A083AA81BB810E949A
:10052E008404FF232AF0ED91FD913196FE93EE9314
:10053E0006C0AA81BB81EFEFFFEFED93FC9319810B
:10054E00088125960895BA93AA9326970E9491043E
:10055E0010E0AC85BD85E0E0F0E0ED93FC93EA8918
:10056E00FB893196EA8BFB8B3197E4912E2FE0308D
:10057E0009F415C1E12FE03039F4253211F411E000
:10058E0002C00E9441040AC1E130A9F4253219F4D7
:10059E000E94410402C112E040E000E02D3211F44D
:1005AE0001E0FCC02B3211F44BE2F8C0203211F402
:1005BE0040E2F4C002C0E23039F450E013E02033E0
:1005CE0011F40068EBC003C0E33009F0E7C020333C
:1005DE0010F02A3308F007C0AAE05A9F502DE22FE0
:1005EE00E0535E0FDBC0E22FE33649F40E9448046D
:1005FE00E889F989A481AA930E944E04CEC0E337FC
:10060E0041F40E9448040E9454040E9412041E2FBA
:10061E000AC0E03761F40E9448040E9454040E940C
:10062E001E041E2F086002600F7730E034C0E436DF
:10063E0011F0E93611F4046002C0E53731F4E4E557
:10064E00F0E0EE83FF8315E00CC0E83511F408608E
:10065E0003C0E83709F0A1C0EEE5F0E0EE83FF83BA
:10066E0014E002FF14C00E9448040E945E04AB8591
:10067E00AA233AF4EA85FB850E947B04EA87FB876E
:10068E004DE2403011F01F5F01C00B7F04C00E948D
:10069E0048040E945E0400FD11C0151778F407FF90
:1006AE0008C002FF04C00B7F242F115001C020E3AD
:1006BE0001C020E20E9441045150EFCF312F01FFC3
:1006CE0017C03030A1F003FF06C0EE81FF812591E7
:1006DE00EE83FF8305C0AE81BF812D91AE83BF83B4
:1006EE000E944104503009F051503150EACF4BC0B6
:1006FE0020E3EE81FF810E948804E887F987EE816E
:10070E00FF813296EE83FF83E885F985AA85BB8546
:10071E00AE17BF0750F02F5FA885B985EA85FB8518
:10072E00EA1BFB0BEA87FB87EFCF2A3328F003FF88
:10073E0002C0295F01C0295D04FD1AC0213320F4D7
:10074E00A885B985119709F409C0531710F000FF59
:10075E0001C013C020E207FF0BC020E3006102FFBF
:10076E0007C00B7F4A930E944E04503009F051503F
:10077E000E944104503009F051503150A885B9857E
:10078E00129708F0B5CF00FF08C0503031F051502D
:10079E00E0E2EA930E944E04F8CF10E0E0CEAC8582
:1007AE00BD850E9484040E94980464960895FF9269
:1007BE00F82E26970E9493040E946604309719F42F
:1007CE00EFEFFFEF23C0DE0116960E9477048D0136
:1007DE000E946604EE83FF83E0E0E887E987DE018E
:1007EE001A960E9477040E948404FA93EA931A934D
:1007FE000A93EAE6F2E0FA93EA93DE011A96A3DE92
:10080E009F01AE81BF81E0E0EC93F9010E949A0452
:10081E002A96FF900895BA93AA93A991B991EE27BB
:10082E00FF276D91662311F03196FBCF0895BA9391
:10083E00AA93AA27BB27E991F9910590002011F000
:10084E001196FBCFFD010895A0EDB7E00C946D0459
:10085E00A4EFB1E00C946D040E94DF01A3E0B0E0C0
:10086E000C946D04A0E30E94CB0188EC90E00197FC
:10087E00F1F708952A93AD85BE85EF85F889099520
:10088E000895E889F9893497E88BF98B0895AD8539
:10089E00BE85EF85F88909950895A889B9891496BA
:1008AE000E948404EE83FF83AE81BF810895A889E0
:1008BE00B98914960E948404EA87FB870895DE01A5
:1008CE001C960E9477040E9484040895109639F0B5
:1008DE0080ED97E00197F1F7A8951197C9F7089564
:1008EE000024AF0DB01D0895F195E195F0400895E7
:1008FE006F2F660F660B762F0895ED91FC91119771
:10090E0008950590F491E02D08957A936A93FA93E1
:10091E00EA9308955A934A933A932A931A930A9311
:10092E0008955D814C813B812A811981088108954A
:00000001FF
